{
  "contractName": "LinkedORCL",
  "abi": [
    {
      "constant": true,
      "inputs": [],
      "name": "owner",
      "outputs": [
        {
          "name": "",
          "type": "address"
        }
      ],
      "payable": false,
      "stateMutability": "view",
      "type": "function"
    },
    {
      "constant": true,
      "inputs": [],
      "name": "currentPrice",
      "outputs": [
        {
          "name": "",
          "type": "uint256"
        }
      ],
      "payable": false,
      "stateMutability": "view",
      "type": "function"
    },
    {
      "inputs": [],
      "payable": false,
      "stateMutability": "nonpayable",
      "type": "constructor"
    },
    {
      "anonymous": false,
      "inputs": [
        {
          "indexed": true,
          "name": "id",
          "type": "bytes32"
        }
      ],
      "name": "ChainlinkRequested",
      "type": "event"
    },
    {
      "anonymous": false,
      "inputs": [
        {
          "indexed": true,
          "name": "id",
          "type": "bytes32"
        }
      ],
      "name": "ChainlinkFulfilled",
      "type": "event"
    },
    {
      "anonymous": false,
      "inputs": [
        {
          "indexed": true,
          "name": "id",
          "type": "bytes32"
        }
      ],
      "name": "ChainlinkCancelled",
      "type": "event"
    },
    {
      "constant": false,
      "inputs": [
        {
          "name": "_oracle",
          "type": "address"
        },
        {
          "name": "_jobId",
          "type": "string"
        },
        {
          "name": "_payment",
          "type": "uint256"
        }
      ],
      "name": "requestEthereumPrice",
      "outputs": [],
      "payable": false,
      "stateMutability": "nonpayable",
      "type": "function"
    },
    {
      "constant": false,
      "inputs": [
        {
          "name": "_requestId",
          "type": "bytes32"
        },
        {
          "name": "_price",
          "type": "uint256"
        }
      ],
      "name": "fulfill",
      "outputs": [],
      "payable": false,
      "stateMutability": "nonpayable",
      "type": "function"
    },
    {
      "constant": false,
      "inputs": [],
      "name": "withdrawLink",
      "outputs": [],
      "payable": false,
      "stateMutability": "nonpayable",
      "type": "function"
    }
  ],
  "bytecode": "0x6080604052600160045534801561001557600080fd5b5061002d610073640100000000026401000000009004565b33600760006101000a81548173ffffffffffffffffffffffffffffffffffffffff021916908373ffffffffffffffffffffffffffffffffffffffff160217905550610183565b61013d73c89bd4e1632d3a43cb03aaad5262cbe4038bc57173ffffffffffffffffffffffffffffffffffffffff166338cc48316040518163ffffffff167c0100000000000000000000000000000000000000000000000000000000028152600401602060405180830381600087803b1580156100ee57600080fd5b505af1158015610102573d6000803e3d6000fd5b505050506040513d602081101561011857600080fd5b810190808051906020019092919050505061013f640100000000026401000000009004565b565b80600260006101000a81548173ffffffffffffffffffffffffffffffffffffffff021916908373ffffffffffffffffffffffffffffffffffffffff16021790555050565b61149d806101926000396000f30060806040526004361061006d576000357c0100000000000000000000000000000000000000000000000000000000900463ffffffff1680634357855e1461007257806363a3cd4c146100ad5780638da5cb5b146101405780638dc654a2146101975780639d1b464a146101ae575b600080fd5b34801561007e57600080fd5b506100ab6004803603810190808035600019169060200190929190803590602001909291905050506101d9565b005b3480156100b957600080fd5b5061013e600480360381019080803573ffffffffffffffffffffffffffffffffffffffff169060200190929190803590602001908201803590602001908080601f016020809104026020016040519081016040528093929190818152602001838380828437820191505050505050919291929080359060200190929190505050610359565b005b34801561014c57600080fd5b50610155610577565b604051808273ffffffffffffffffffffffffffffffffffffffff1673ffffffffffffffffffffffffffffffffffffffff16815260200191505060405180910390f35b3480156101a357600080fd5b506101ac61059d565b005b3480156101ba57600080fd5b506101c361082f565b6040518082815260200191505060405180910390f35b8160056000826000191660001916815260200190815260200160002060009054906101000a900473ffffffffffffffffffffffffffffffffffffffff1673ffffffffffffffffffffffffffffffffffffffff163373ffffffffffffffffffffffffffffffffffffffff161415156102de576040517f08c379a00000000000000000000000000000000000000000000000000000000081526004018080602001828103825260288152602001807f536f75726365206d75737420626520746865206f7261636c65206f662074686581526020017f207265717565737400000000000000000000000000000000000000000000000081525060400191505060405180910390fd5b60056000826000191660001916815260200190815260200160002060006101000a81549073ffffffffffffffffffffffffffffffffffffffff021916905580600019167f7cc135e0cebb02c3480ae5d74d377283180a2601f8f644edf7987b009316c63a60405160405180910390a281600681905550505050565b6103616113cf565b600760009054906101000a900473ffffffffffffffffffffffffffffffffffffffff1673ffffffffffffffffffffffffffffffffffffffff163373ffffffffffffffffffffffffffffffffffffffff161415156103bd57600080fd5b6103f36103c984610835565b30634357855e7c010000000000000000000000000000000000000000000000000000000002610860565b905061049b6040805190810160405280600381526020017f6765740000000000000000000000000000000000000000000000000000000000815250606060405190810160405280603f81526020017f68747470733a2f2f6d696e2d6170692e63727970746f636f6d706172652e636f81526020017f6d2f646174612f70726963653f6673796d3d455448267473796d733d55534400815250836108919092919063ffffffff16565b61051a6040805190810160405280600481526020017f70617468000000000000000000000000000000000000000000000000000000008152506040805190810160405280600381526020017f5553440000000000000000000000000000000000000000000000000000000000815250836108919092919063ffffffff16565b6105656040805190810160405280600581526020017f74696d65730000000000000000000000000000000000000000000000000000008152506064836108c49092919063ffffffff16565b6105708482846108f7565b5050505050565b600760009054906101000a900473ffffffffffffffffffffffffffffffffffffffff1681565b6000600760009054906101000a900473ffffffffffffffffffffffffffffffffffffffff1673ffffffffffffffffffffffffffffffffffffffff163373ffffffffffffffffffffffffffffffffffffffff161415156105fb57600080fd5b610603610c83565b90508073ffffffffffffffffffffffffffffffffffffffff1663a9059cbb338373ffffffffffffffffffffffffffffffffffffffff166370a08231306040518263ffffffff167c0100000000000000000000000000000000000000000000000000000000028152600401808273ffffffffffffffffffffffffffffffffffffffff1673ffffffffffffffffffffffffffffffffffffffff168152602001915050602060405180830381600087803b1580156106bd57600080fd5b505af11580156106d1573d6000803e3d6000fd5b505050506040513d60208110156106e757600080fd5b81019080805190602001909291905050506040518363ffffffff167c0100000000000000000000000000000000000000000000000000000000028152600401808373ffffffffffffffffffffffffffffffffffffffff1673ffffffffffffffffffffffffffffffffffffffff16815260200182815260200192505050602060405180830381600087803b15801561077d57600080fd5b505af1158015610791573d6000803e3d6000fd5b505050506040513d60208110156107a757600080fd5b8101908080519060200190929190505050151561082c576040517f08c379a00000000000000000000000000000000000000000000000000000000081526004018080602001828103825260128152602001807f556e61626c6520746f207472616e73666572000000000000000000000000000081525060200191505060405180910390fd5b50565b60065481565b60006060829050600081511415610852576000600102915061085a565b602083015191505b50919050565b6108686113cf565b6108706113cf565b61088785858584610cad909392919063ffffffff16565b9150509392505050565b6108a8828460800151610d6790919063ffffffff16565b6108bf818460800151610d6790919063ffffffff16565b505050565b6108db828460800151610d6790919063ffffffff16565b6108f2818460800151610d8c90919063ffffffff16565b505050565b600030600454604051602001808373ffffffffffffffffffffffffffffffffffffffff1673ffffffffffffffffffffffffffffffffffffffff166c01000000000000000000000000028152601401828152602001925050506040516020818303038152906040526040518082805190602001908083835b602083101515610993578051825260208201915060208101905060208303925061096e565b6001836020036101000a038019825116818451168082178552505050505050905001915050604051809103902090506004548360600181815250508360056000836000191660001916815260200190815260200160002060006101000a81548173ffffffffffffffffffffffffffffffffffffffff021916908373ffffffffffffffffffffffffffffffffffffffff16021790555080600019167fb5e6e01e79f91267dc17b4e6314d5d4d03593d2ceee0fbb452b750bd70ea5af960405160405180910390a2600260009054906101000a900473ffffffffffffffffffffffffffffffffffffffff1673ffffffffffffffffffffffffffffffffffffffff16634000aea08584610aa287610dda565b6040518463ffffffff167c0100000000000000000000000000000000000000000000000000000000028152600401808473ffffffffffffffffffffffffffffffffffffffff1673ffffffffffffffffffffffffffffffffffffffff16815260200183815260200180602001828103825283818151815260200191508051906020019080838360005b83811015610b45578082015181840152602081019050610b2a565b50505050905090810190601f168015610b725780820380516001836020036101000a031916815260200191505b50945050505050602060405180830381600087803b158015610b9357600080fd5b505af1158015610ba7573d6000803e3d6000fd5b505050506040513d6020811015610bbd57600080fd5b81019080805190602001909291905050501515610c68576040517f08c379a00000000000000000000000000000000000000000000000000000000081526004018080602001828103825260238152602001807f756e61626c6520746f207472616e73666572416e6443616c6c20746f206f726181526020017f636c65000000000000000000000000000000000000000000000000000000000081525060400191505060405180910390fd5b60016004600082825401925050819055508090509392505050565b6000600260009054906101000a900473ffffffffffffffffffffffffffffffffffffffff16905090565b610cb56113cf565b610cc58560800151610100611005565b50838560000190600019169081600019168152505082856020019073ffffffffffffffffffffffffffffffffffffffff16908173ffffffffffffffffffffffffffffffffffffffff16815250508185604001907bffffffffffffffffffffffffffffffffffffffffffffffffffffffff191690817bffffffffffffffffffffffffffffffffffffffffffffffffffffffff191681525050849050949350505050565b610d74826003835161105f565b610d8781836111bd90919063ffffffff16565b505050565b600081121515610da757610da28260008361105f565b610dd6565b610dd5826001837fffffffffffffffffffffffffffffffffffffffffffffffffffffffffffffffff0361105f565b5b5050565b6060600360009054906101000a900473ffffffffffffffffffffffffffffffffffffffff1673ffffffffffffffffffffffffffffffffffffffff16634042994690507c01000000000000000000000000000000000000000000000000000000000260008084600001518560200151866040015187606001516001896080015160000151604051602401808973ffffffffffffffffffffffffffffffffffffffff1673ffffffffffffffffffffffffffffffffffffffff16815260200188815260200187600019166000191681526020018673ffffffffffffffffffffffffffffffffffffffff1673ffffffffffffffffffffffffffffffffffffffff168152602001857bffffffffffffffffffffffffffffffffffffffffffffffffffffffff19167bffffffffffffffffffffffffffffffffffffffffffffffffffffffff1916815260200184815260200183815260200180602001828103825283818151815260200191508051906020019080838360005b83811015610f68578082015181840152602081019050610f4d565b50505050905090810190601f168015610f955780820380516001836020036101000a031916815260200191505b509950505050505050505050604051602081830303815290604052907bffffffffffffffffffffffffffffffffffffffffffffffffffffffff19166020820180517bffffffffffffffffffffffffffffffffffffffffffffffffffffffff83818316178352505050509050919050565b61100d61143d565b600060208381151561101b57fe5b061415156110385760208281151561102f57fe5b06602003820191505b81836020018181525050604051808452600081528281016020016040525082905092915050565b6017811115156110915761108b8160058460ff169060020a0260ff1617846111df90919063ffffffff16565b506111b8565b60ff811115156110d8576110bb601860058460ff169060020a0217846111df90919063ffffffff16565b506110d2816001856111ff9092919063ffffffff16565b506111b7565b61ffff8111151561112057611103601960058460ff169060020a0217846111df90919063ffffffff16565b5061111a816002856111ff9092919063ffffffff16565b506111b6565b63ffffffff8111151561116a5761114d601a60058460ff169060020a0217846111df90919063ffffffff16565b50611164816004856111ff9092919063ffffffff16565b506111b5565b67ffffffffffffffff811115156111b45761119b601b60058460ff169060020a0217846111df90919063ffffffff16565b506111b2816008856111ff9092919063ffffffff16565b505b5b5b5b5b505050565b6111c561143d565b6111d783846000015151848551611221565b905092915050565b6111e761143d565b6111f783846000015151846112de565b905092915050565b61120761143d565b61121884856000015151858561132e565b90509392505050565b61122961143d565b60008060008551851115151561123e57600080fd5b87602001518588011115611269576112688860026112628b602001518b8a0161138f565b026113ab565b5b8751805188602083010194508089880111156112855788870182525b60208801935050505b6020851015156112b3578151835260208301925060208201915060208503945061128e565b6001856020036101000a03905080198251168184511681811785525050879350505050949350505050565b6112e661143d565b836020015183101515611305576113048460028660200151026113ab565b5b8351805160208583010184815381861415611321576001820183525b5050508390509392505050565b61133661143d565b60008560200151858401111561135657611355866002878601026113ab565b5b6001836101000a03905085518386820101858319825116178152815185880111156113815784870182525b505085915050949350505050565b6000818311156113a1578290506113a5565b8190505b92915050565b6060826000015190506113be8383611005565b506113c983826111bd565b50505050565b60c06040519081016040528060008019168152602001600073ffffffffffffffffffffffffffffffffffffffff16815260200160007bffffffffffffffffffffffffffffffffffffffffffffffffffffffff1916815260200160008152602001611437611457565b81525090565b604080519081016040528060608152602001600081525090565b6040805190810160405280606081526020016000815250905600a165627a7a723058205b27c9b53feeb7ec5e6b0143a31bed02a5132fc2f71243fc1f37cec1a8a95c860029",
  "source": "/** Oracle contract for the linked stablecoin.\n*\n*   The contract uses the decentralised oracle chainlink\n*\n**/\n\npragma solidity ^0.4.24;\n\nimport \"chainlink/contracts/ChainlinkClient.sol\";\n\ncontract LinkedORCL is ChainlinkClient {\n\n  uint256 public currentPrice;\n  address public owner;\n\n  constructor() public {\n    // Set the address for the LINK token for the network\n    setPublicChainlinkToken();\n    owner = msg.sender;\n  }\n\n  // Creates a Chainlink request with the uint256 multiplier job\n  function requestEthereumPrice(address _oracle, string _jobId, uint256 _payment)\n    public\n    onlyOwner\n  {\n    // newRequest takes a JobID, a callback address, and callback function as input\n    Chainlink.Request memory req = buildChainlinkRequest(stringToBytes32(_jobId), this, this.fulfill.selector);\n    // Adds a URL with the key \"get\" to the request parameters\n    req.add(\"get\", \"https://min-api.cryptocompare.com/data/price?fsym=ETH&tsyms=USD\");\n    // Uses input param (dot-delimited string) as the \"path\" in the request parameters\n    req.add(\"path\", \"USD\");\n    // Adds an integer with the key \"times\" to the request parameters\n    req.addInt(\"times\", 100);\n    // Sends the request with the amount of payment specified to the oracle\n    sendChainlinkRequestTo(_oracle, req, _payment);\n  }\n\n  function stringToBytes32(string memory source) private pure returns (bytes32 result) {\n    bytes memory tempEmptyStringTest = bytes(source);\n    if (tempEmptyStringTest.length == 0) {\n      return 0x0;\n    }\n\n    assembly { // solhint-disable-line no-inline-assembly\n      result := mload(add(source, 32))\n    }\n  }\n\n  // fulfill receives a uint256 data type\n  function fulfill(bytes32 _requestId, uint256 _price)\n    public\n    // Use recordChainlinkFulfillment to ensure only the requesting oracle can fulfill\n    recordChainlinkFulfillment(_requestId)\n  {\n    currentPrice = _price;\n  }\n\n  // withdrawLink allows the owner to withdraw any extra LINK on the contract\n  function withdrawLink()\n    public\n    onlyOwner\n  {\n    LinkTokenInterface link = LinkTokenInterface(chainlinkTokenAddress());\n    require(link.transfer(msg.sender, link.balanceOf(address(this))), \"Unable to transfer\");\n  }\n\n  modifier onlyOwner() {\n    require(msg.sender == owner);\n    _;\n  }\n}\n",
  "sourcePath": "/Users/kevinfoesenek/Linked/contracts/LinkedORCL.sol",
  "compiler": {
    "name": "solc",
    "version": "0.4.24+commit.e67f0147.Emscripten.clang"
  },
  "schemaVersion": "3.0.1",
  "updatedAt": "2019-10-29T09:42:02.699Z",
  "devdoc": {
    "methods": {}
  },
  "userdoc": {
    "methods": {}
  }
}